:100000000C9409010C9431010C9431010C944005BD
:100010000C9440050C9440050C9431010C94310172
:100020000C9431010C9431010C9431010C94310188
:100030000C9431010C9431010C9431010C94310178
:100040000C9490040C9431010C9479030C94530398
:100050000C9431010C9431010C9431010C94310158
:100060000C9431010C943101DB08FE081C0937099E
:1000700042098009870991099C09AB09AB09AB09C1
:10008000AB09AB09AB09AB09AB09AB09AB09AB09D0
:10009000AB09AB09AB09AB09AB09AB09AB09AB09C0
:1000A000AB09AB09AB09AB09DB08F908FE081C0971
:1000B000370942095D096809730900407A10F35A4B
:1000C00000A0724E18090010A5D4E80000E8764898
:1000D000170000E40B54020000CA9A3B000000E144
:1000E000F505000080969800000040420F000000D7
:1000F000A08601000000102700000000E8030000B7
:1001000000006400000000000A0000000000010080
:10011000000000002C76D888DC674F0823DFC1DFA1
:10012000AE59E1B1B796E5E3E453C63AE6519976A4
:1001300096E8E6C28426EB898C9B62ED407C6FFCDE
:10014000EFBC9C9F40F2BAA56FA5F490055A2AF720
:100150005C936B6CF9676DC11BFCE0E40D47FEF529
:1001600020E6B500D0ED902E030094357705008091
:10017000841E080000204E0A000000C80C333333F0
:10018000330F986E12831141EF8D2114893BE65590
:1001900016CFFEE6DB18D1844B381BF77C1D901D73
:1001A000A4BBE424203284725E228100C9F124ECD5
:1001B000A1E53D2700000000240027002A000000E0
:1001C0000000250028002B0000000000230026006E
:1001D00029000404040404040404020202020202CA
:1001E00003030303030301020408102040800102FB
:1001F000040810200102040810200000000800027A
:1002000001000003040700000000000000003B1094
:10021000251011241FBECFEFD8E0DEBFCDBF24E0F4
:10022000A6EAB2E001C01D92A937B207E1F712E0D9
:10023000A0E0B1E0EAEAF7E302C005900D92A63A29
:10024000B107D9F711E0C8E0D1E004C02197FE0161
:100250000E949A19C730D107C9F70E94F4100C9474
:10026000C81B0C940000CF92DF92EF92FF920F9385
:100270001F93CF93DF936C017A018B01C0E0D0E034
:10028000CE15DF0589F0D8016D918D01D601ED9174
:10029000FC910190F081E02DC6010995892B11F4A4
:1002A0007E0102C02196ECCFC701DF91CF911F9153
:1002B0000F91FF90EF90DF90CF900895FC01538D48
:1002C000448D252F30E0842F90E0821B930B541730
:1002D00010F0CF96089501970895FC01918D828DBD
:1002E000981761F0828DDF01A80FB11D5D968C918A
:1002F000928D9F5F9F73928F90E008958FEF9FEF95
:100300000895FC01918D828D981731F0828DE80F50
:10031000F11D858D90E008958FEF9FEF0895FC010A
:10032000918D228D892F90E0805C9F4F821B9109D7
:100330008F73992708958FE093E00E948F0121E049
:10034000892B09F420E0822F0895FC01848DDF01C0
:10035000A80FB11DA35ABF4F2C91848D90E0019638
:100360008F739927848FA689B7892C93A089B18927
:100370008C9180648C93938D848D981306C0028831
:10038000F389E02D80818F7D80830895EF92FF9225
:100390000F931F93CF93DF93EC0181E0888F9B8DA8
:1003A0008C8D981305C0E889F989808185FD24C06A
:1003B000F62E0B8D10E00F5F1F4F0F731127E02EED
:1003C0008C8DE8120CC00FB607FCFACFE889F989CA
:1003D000808185FFF5CFCE010E94A501F1CF8B8DE5
:1003E000FE01E80FF11DE35AFF4FF0820B8FEA89FF
:1003F000FB898081806207C0EE89FF896083E8897C
:10040000F98980818064808381E090E0DF91CF91E1
:100410001F910F91FF90EF900895CF93DF93EC0120
:10042000888D8823C9F0EA89FB89808185FD05C014
:10043000A889B9898C9186FD0FC00FB607FCF5CF4E
:10044000808185FFF2CFA889B9898C9185FFEDCF96
:10045000CE010E94A501E7CFDF91CF91089580E002
:1004600090E0892B29F00E949B0181110C940000DF
:1004700008958E3008F08E508770806480937C00E1
:1004800080917A00806480937A0080917A0086FD62
:10049000FCCF809178002091790090E0922B089514
:1004A0003FB7F8948091FF0290910003A09101035F
:1004B000B091020326B5A89B05C02F3F19F0019605
:1004C000A11DB11D3FBFBA2FA92F982F8827820FDA
:1004D000911DA11DB11DBC01CD0142E0660F771F2A
:1004E000881F991F4A95D1F708952091F8023091FD
:1004F000F9022817390771F49091F7028091F602FA
:10050000981741F0E091F702F0E0EA54FD4F808146
:1005100090E008958FEF9FEF089508951F93CF9374
:10052000DF93DC015C962D913C915D97211531059F
:1005300039F481E090E013969C938E9312973DC01E
:100540005196ED91FC91529750969C915097892F1E
:1005500080951FB75E964C915E9741FB772770F9A7
:1005600041FD6095F8944081772311F0492B01C03B
:1005700048234083E9012197F1F748E0508160FF6B
:1005800002C0592B01C058235083E9012197F1F78C
:100590006695415099F7772321F0908189238083D4
:1005A00003C08081982B90831FBF5C968D919C9196
:1005B0005D970197F1F721E030E0C901DF91CF911C
:1005C0001F9108952091F8023091F90228173907F8
:1005D00071F48091F6022091F70290E0805C9F4FC9
:1005E000821B910960E470E00E946419089580E024
:1005F00090E008952091F8023091F9022817390708
:10060000B9F49091F7028091F602981789F0E09181
:10061000F702F0E0EA54FD4F80812091F70230E0CC
:100620002F5F3F4F2F7333272093F70290E00895F9
:100630008FEF9FEF0895E091F802F091F902E8172B
:10064000F90769F4A389B4899C91858980958923E8
:100650008C931092F9021092F80281E0089580E0E4
:100660000895089580E090E00895DC01ED91FC91FB
:100670000190F081E02D09946115710579F0FB017D
:1006800001900020E9F73197AF01461B570BDC01C1
:10069000ED91FC910280F381E02D099480E090E0DF
:1006A00008950C943C031F920F920FB60F921124E1
:1006B0002F933F934F935F936F937F938F939F936A
:1006C000AF93BF93EF93FF938FE093E00E94A50158
:1006D000FF91EF91BF91AF919F918F917F916F911A
:1006E0005F914F913F912F910F900FBE0F901F90F0
:1006F00018951F920F920FB60F9211242F938F937C
:100700009F93EF93FF93E0911F03F091200380816B
:10071000E0912503F091260382FD12C09081809123
:1007200028038F5F8F7320912903821751F0E09186
:100730002803F0E0E15FFC4F958F8093280301C010
:100740008081FF91EF919F918F912F910F900FBE1C
:100750000F901F901895833081F028F4813099F024
:100760008230A1F008958730A9F08830B9F0843044
:10077000D1F4809180008F7D03C0809180008F77BD
:1007800080938000089584B58F7702C084B58F7DF3
:1007900084BD08958091B0008F7703C08091B00030
:1007A0008F7D8093B00008951F93CF93DF93282F00
:1007B00030E0F901E650FE4F8491F901EA51FE4F15
:1007C000D491F901EE52FE4FC491CC23C9F0162FFB
:1007D00081110E94AB03EC2FF0E0EE0FFF1FE254FB
:1007E000FE4FA591B4918FB7F894111105C09C915B
:1007F000ED2FE095E92302C0EC91ED2BEC938FBF38
:10080000DF91CF911F910895CF93DF93EC0160E0CA
:100810008E810E94D40361E08E810E94D40360E047
:100820008E810E94D4038BE891E00197F1F7DF916C
:10083000CF910895CF93DF9390E0FC01EA51FE4FF2
:100840002491FC01EE52FE4F8491882361F190E0E7
:10085000880F991FFC01EC54FE4FC591D491FC0107
:10086000E254FE4FA591B491611109C09FB7F8946D
:100870008881209582238883EC912E230BC06230DF
:1008800061F49FB7F8943881822F80958323888301
:10089000EC912E2B2C939FBF06C08FB7F894E88164
:1008A0002E2B28838FBFDF91CF9108958F929F9237
:1008B000AF92BF92CF92DF92EF92FF926B017C01D9
:1008C0000E9450024B015C01C114D104E104F10407
:1008D000F1F00E945002DC01CB0188199909AA09A4
:1008E000BB09883E9340A105B10570F321E0C21A0F
:1008F000D108E108F10888EE880E83E0981EA11C5B
:10090000B11CC114D104E104F10419F7DDCFFF904B
:10091000EF90DF90CF90BF90AF909F908F90089511
:100920001F920F920FB60F9211242F933F938F9324
:100930009F93AF93BF938091FB029091FC02A09193
:10094000FD02B091FE023091FA0223E0230F2D3711
:1009500020F40196A11DB11D05C026E8230F0296C3
:10096000A11DB11D2093FA028093FB029093FC021B
:10097000A093FD02B093FE028091FF0290910003CC
:10098000A0910103B09102030196A11DB11D8093B6
:10099000FF0290930003A0930103B0930203BF9161
:1009A000AF919F918F913F912F910F900FBE0F901C
:1009B0001F9018950F931F93CF93DF93EC01162F81
:1009C000042F1B821A8288EE93E0A0E0B0E08C83B3
:1009D0009D83AE83BF838AE091E0998388831F8AD9
:1009E0001E8A198E188E1B8E1A8E1D8E1C8E6E8D71
:1009F0006E7F20FB61F96E8F6695617081E06827DC
:100A0000842F0E94D40361E0802F0E941A04402F9B
:100A100050E0FA01EA51FE4FE491E88BFA01EE5200
:100A2000FE4FE491F0E0EE0FFF1FE254FE4F859180
:100A300094919A8B898B60E0812F0E941A048E8D8D
:100A400081FD04C061E0812F0E94D4031C87612FC7
:100A500070E0FB01EA51FE4FE491ED87FB01EE529D
:100A6000FE4FE491F0E0EE0FFF1FE853FE4F85913B
:100A700094919F878E87DF91CF911F910F91089559
:100A80001F920F920FB60F9211242F933F934F9303
:100A90005F936F937F938F939F93AF93BF93EF93E6
:100AA000FF93E091F802F091F902309709F451C0F8
:100AB000968DA685B785858591FF04C09C91892375
:100AC00029F447C09C91892309F043C0A389B489C4
:100AD0009C918589809589238C9386899789019734
:100AE000F1F7608D718DA685B785558538E020E0DA
:100AF000CB010197F1F7822F90E095958795282FEC
:100B00004C91452309F02068315091F7868D81FD85
:100B100020958091F60290E001968F73992730918D
:100B2000F702381749F0A091F602B0E0AA54BD4F81
:100B30002C938093F60203C0868D8160868F828D10
:100B4000938D0197F1F7A389B4899C918589892BAD
:100B50008C93FF91EF91BF91AF919F918F917F9176
:100B60006F915F914F913F912F910F900FBE0F901A
:100B70001F901895CF93DF93EC018A8D9B8D892B65
:100B8000F1F08091F8029091F9028C179D07B9F06D
:100B9000009711F00E941B038E8D8E7F8E8F109216
:100BA000F6021092F702D093F902C093F802EB8993
:100BB000FC8990818D89892B808381E001C080E050
:100BC000DF91CF910895CF92DF92EF92FF920F9332
:100BD0001F93CF93DF937C016C0187E0C80ED11C7B
:100BE000C0E0D0E0062F10E0B8010C2E02C07595D1
:100BF00067950A94E2F76170F60181916F010E9496
:100C0000D4032196C430D10579F7C701DF91CF9184
:100C10001F910F91FF90EF90DF90CF900C94040400
:100C2000CF92DF92EF92FF920F931F93CF93DF93B8
:100C3000EC01F62E642F8C810E94D4038D818F3FAE
:100C400019F060E00E94D4038F850F2D10E084FF1F
:100C500025C06E0187E0C80ED11CE12CF12CB80133
:100C60000E2C02C0759567950A94E2F76170F60143
:100C700081916F010E94D403FFEFEF1AFF0A88E011
:100C8000E816F10461F7CE01DF91CF911F910F912A
:100C9000FF90EF90DF90CF900C940404B80184E0B3
:100CA000759567958A95E1F7CE010E94E3056F2D52
:100CB000CE01DF91CF911F910F91FF90EF90DF90C8
:100CC000CF900C94E30541E00E94100681E090E093
:100CD000089540E00C94100661E00E9469068BE3E1
:100CE0009FE10197F1F708950F931F9361E086E06C
:100CF0000E94D40361E070E080E090E00E9456041E
:100D000060E086E00E94D403EBEEF1E06491E7ED51
:100D1000F1E0E491F0E0EE0FFF1FE853FE4F859104
:100D2000949100E412E42FE030E0462F0E94E00F9F
:100D3000611571058105910539F0DC01CB01019642
:100D4000A11DB11DBF7003C080E090E0DC01809365
:100D5000AA029093AB02A093AC02B093AD02BC0187
:100D6000CD0195958795779567950E94C71626E6DC
:100D700036E64CE652E40E94A2180E9414196093D1
:100D800003037093040380930503909306031F915C
:100D90000F9108958FE00E94390220E631E0AC0106
:100DA000429FC001439F900D529F900D11246AEF06
:100DB00070E00E94641970930A036093090364E170
:100DC00070E080E090E00C9456048EE00E943902BE
:100DD000BC01990F880B990B0E94C7162FE632E1D0
:100DE00043E050E40E94A2186093A6027093A70209
:100DF0008093A8029093A90220E030E040E151E402
:100E00000E94261720E030E040EA50E40E94A21839
:100E100020E030E040E052E40E94361860930B037B
:100E200070930C0380930D0390930E0308954F92DB
:100E30005F926F927F928F929F92AF92BF92FF923A
:100E40000F931F93CF93DF93CDB7DEB7A8970FB65D
:100E5000F894DEBF0FBECDBF0E94E5060E94CA0611
:100E60000E94740686E594E00E94BA0502E0FF2421
:100E7000F39486E594E00E94E202892B09F4EFC224
:100E800086E594E00E94FA02182F80911504909153
:100E90001604A0911704B09118040196A11DB11D6C
:100EA0008093150490931604A0931704B09318042C
:100EB000143209F462C2E0911304153234F41A308A
:100EC00071F01D3009F066C20AC01A3241F01C32BE
:100ED00009F060C280910004812780930004EF3004
:100EE00008F039C2F0E0EE5FFB4F10828091010400
:100EF000882309F428C1209102043FEB320F822F8E
:100F0000022E000C990B363010F4C79707C02156FB
:100F1000263018F48755910901C0C097282F2295D3
:100F2000207F309103044FEB430F832F032E000CDF
:100F3000990B463010F4C79707C03156363018F475
:100F40008755910901C0C097820F909100048913C1
:100F5000F0C080911404882309F4FDC18091190424
:100F600090911A04019690931A0480931904809129
:100F7000F4039091F503A091F603B091F7038093E9
:100F8000F0039093F103A093F203B093F3038091E5
:100F9000FC039091FD03A091FE03B091FF038093A9
:100FA000F8039093F903A093FA03B093FB038091A5
:100FB0001104882309F464C0813009F0C8C180910C
:100FC000B0039091B103A091B203B091B3038093A9
:100FD000AC039093AD03A093AE03B093AF038091A5
:100FE000B8039091B903A091BA03B091BB03809369
:100FF000B4039093B503A093B603B093B703809165
:10100000C0039091C103A091C203B091C303809328
:10101000BC039093BD03A093BE03B093BF03809124
:10102000C8039091C903A091CA03B091CB038093E8
:10103000C4039093C503A093C603B093C7038091E4
:10104000D8039091D903A091DA03B091DB03809388
:10105000D4039093D503A093D603B093D703809184
:10106000E0039091E103A091E203B091E303809348
:10107000DC039093DD03A093DE03B093DF0367C12D
:101080008091D0039091D103A091D203B091D3036A
:101090008093CC039093CD03A093CE03B093CF0362
:1010A0008091B0039091B103A091B203B091B303CA
:1010B0008093AC039093AD03A093AE03B093AF03C2
:1010C0008091C0039091C103A091C203B091C3036A
:1010D0008093BC039093BD03A093BE03B093BF0362
:1010E0008091C8039091C903A091CA03B091CB032A
:1010F0008093C4039093C503A093C603B093C70322
:101100008091EE039091EF039093ED038093EC03B5
:101110008091E8039091E903A091EA03B091EB0379
:101120008093E4039093E503A093E603B093E70371
:101130000EC180911B0490911C04019690931C0495
:1011400080931B0408C19091120491111CC0A2E06D
:10115000B4E048E551E09D01F90181919F018823A8
:1011600009F4F7C0FA019191AF018917A9F3E6E3F9
:10117000F2E08D91882309F4E6C291918917C9F3B1
:1011800000931104E8C0E0911104E23009F4E3C0D7
:1011900080910204882309F4DEC020E2E29FF0017E
:1011A0001124E92B3197E932F10508F0D4C0EC5C49
:1011B000FF4F0C949A190E94920D6093B0037093A4
:1011C000B1038093B2039093B3032FB7F894809147
:1011D000FB029091FC02A091FD02B091FE022FBF94
:1011E0008093F4039093F503A093F603B093F70371
:1011F000B2C091E0813409F086C086C00E94EC0D37
:101200006093C0037093C1038093C2039093C303A0
:101210002FB7F8948091FB029091FC02A091FD02FF
:10122000B091FE022FBF8093FC039093FD03A09327
:10123000FE03B093FF038FC0833509F08CC080910B
:10124000C0039091C103A091C203B091C303B095B4
:10125000A095909581959F4FAF4FBF4F8093C0034E
:101260009093C103A093C203B093C30374C00E94C0
:10127000EC0D6093C8037093C9038093CA039093E5
:10128000CB0369C0873509F066C08091C80390918F
:10129000C903A091CA03B091CB03B095A0959095D6
:1012A00081959F4FAF4FBF4F8093C8039093C90361
:1012B000A093CA03B093CB034EC00E94920D6093DB
:1012C000D8037093D9038093DA039093DB0343C070
:1012D0000E94920D6093E0037093E1038093E20318
:1012E0009093E30338C082E094E00E94680D60931D
:1012F000B8037093B9038093BA039093BB032BC0D8
:1013000091E081330CF490E09093140424C082E0C7
:1013100094E00E94CE1399279093EF038093EE03FD
:101320001AC00E94920D6093E8037093E9038093C2
:10133000EA039093EB030FC00E94920D6093D003D9
:101340007093D1038093D2039093D30304C091E0B0
:1013500003C0F092110490E0809112048F5F80939B
:1013600012041092130481E01A3209F080E0809395
:101370000104992309F47DCD21C010921304109229
:1013800012041092000400931104109201041092B0
:1013900014046FCDEE3040F481E08E0F809313047F
:1013A000F0E0EE5FFB4F108380910104811161CD6D
:1013B000809100041827109300045BCD8090BC033B
:1013C0009090BD03A090BE03B090BF034090C403B3
:1013D0005090C5036090C6037090C7038FEF8816C6
:1013E00089EC98068AE9A8068BE3B80659F0C5018E
:1013F000B4010E94C71620E034E244E759E40E9499
:10140000A21804C060E070E08AE794E46093B2023E
:101410007093B3028093B4029093B502EFEF8E16EF
:10142000E9EC9E06EAE9AE06EBE3BE0659F0C3011D
:10143000B2010E94C71620E034E244E759E40E945A
:10144000A21804C060E070E08AE794E46093AE0202
:101450007093AF028093B0029093B1020ACD8FE1F6
:1014600094E00E946C0660E080E00E94F70C6EE55C
:1014700071E08FE194E00E94510340910B03509181
:101480000C0360910D0370910E0322E08FE194E054
:101490000E94FE0E67E671E08FE194E00E94510326
:1014A00061E080E00E94F70C6AE671E08FE194E071
:1014B0000E9451036091090370910A03072E000CEA
:1014C000880B990B0E94360D63E771E08FE194E081
:1014D0000E94510362E080E00E94F70C68E771E02F
:1014E0008FE194E00E945103609103037091040323
:1014F00080910503909106030E94360D61E871E02A
:101500008FE194E00E94510385E891E00E940C0D68
:1015100068EC70E080E090E00E9456048FE891E073
:101520000E940C0D88EA91E00E940C0D68EC70E0BE
:1015300080E090E00E94560460910B0370910C03D0
:1015400080910D0390910E031CA21BA21EA21DA24E
:1015500018A61FA28E010F5F1F4F22E044E00E94D9
:10156000AE13BC01CE0183960E94970E61EC71E030
:10157000C8010E94C30EBE016D5D7F4FC8010E946D
:10158000840E60ED71E00E946B0E0E941F0D898138
:101590009A810E94511A8BA19CA10E94511A80919C
:1015A000090390910A031CA21BA21EA21DA218A649
:1015B0001FA24AE0B8010E94EC13B801CE01839645
:1015C0000E94970E6AE671E0C8010E94C30EBE0138
:1015D0006D5D7F4FC8010E94840E63E771E00E9439
:1015E0006B0E0E941F0D89819A810E94511A8BA156
:1015F0009CA10E94511A6091030370910403809191
:101600000503909106031CA21BA21EA21DA218A6F0
:101610001FA22AE0A8010E94F713B801CE01839609
:101620000E94970E64ED71E0C8010E94C30EBE01D6
:101630006D5D7F4FC8010E94840E61E871E00E94D9
:101640006B0E0E941F0D89819A810E94511A8BA1F5
:101650009CA10E94511A68EC70E080E090E00E942A
:10166000560480EE91E00E940C0D8EEE91E00E94F7
:101670000C0D8AE092E00E940C0D6AE172E087E3B3
:1016800094E00E9451034091B2025091B3026091E4
:10169000B4027091B50226E087E394E00E94FE0E4A
:1016A00066E272E087E394E00E943C0369E272E044
:1016B00087E394E00E9451034091AE025091AF0243
:1016C0006091B0027091B10226E087E394E00E943D
:1016D000FE0E66E272E087E394E00E943C0364E65B
:1016E00070E080E090E00E9456046AE187E394E0B5
:1016F0000E94350366E272E087E394E00E943C03B7
:1017000064EF71E080E090E00E945604809107034E
:101710009091080301969093080380930703A8967D
:101720000FB6F894DEBF0FBECDBFDF91CF911F91F2
:101730000F91FF90BF90AF909F908F907F906F9090
:101740005F904F9008951092110405CEEF92FF9292
:101750000F931F93CF93DF93EC01423018F08F85E6
:1017600088608F874B8B1C8A80E48D8B6E8B70E03A
:10177000605C7F4F6F8B61E08C810E941A048D81C9
:101780008F3F19F061E00E941A0461E08E810E948F
:101790001A047E0187E0E80EF11C00E010E08F855E
:1017A00084FD03C084E090E002C088E090E0081768
:1017B00019074CF461E0F70181917F010E941A043E
:1017C0000F5F1F4FECCF8BE39DE00197F1F760E0D7
:1017D0008C810E94D40360E08E810E94D4038D81AD
:1017E0008F3F19F060E00E94D4036F8564FD1DC037
:1017F00063E0CE010E94E3050BE416E4C801019703
:10180000F1F763E0CE010E94E305C8010197F1F70B
:1018100063E0CE010E94E30583E592E00197F1F7D2
:1018200062E0CE010E94E30516C06062CE010E9414
:1018300069068BE496E40197F1F76F856062CE014B
:101840000E94690683E592E00197F1F76F85606277
:10185000CE010E9469066F856062CE010E94690612
:1018600084E0888B6CE0CE010E946906CE010E9464
:101870006C0682E0898B66E0CE01DF91CF911F91EB
:101880000F91FF90EF900C9469064F925F926F92C8
:101890007F92EF92FF920F931F93CF93DF93CDB779
:1018A000DEB7A1970FB6F894DEBF0FBECDBF7C01A7
:1018B000FA01CB0119A2223008F42AE08E010F5D53
:1018C0001F4F422E512C612C712CBF01A30192019C
:1018D0000E947819F901CA01015011096A3014F403
:1018E000605D01C0695CD8016C93232B242B252BF0
:1018F00061F7B801C7010E943C03A1960FB6F894A6
:10190000DEBF0FBECDBFDF91CF911F910F91FF9032
:10191000EF907F906F905F904F9008950E94B31B5F
:101920000F931F93CF93DF93EC01888199810097E8
:1019300029F02A813B812617370788F48B016F5FD6
:101940007F4F0E94E91A009761F0998388831B8377
:101950000A832C813D81232B11F4FC01108281E04C
:1019600001C080E0DF91CF911F910F910895EF9218
:10197000FF920F931F93CF93DF93FC012481358156
:101980006115710511F480E019C041155105A9F0E8
:101990007B01EC018A01020F131FB8010E94900C19
:1019A000882389F3288139818C819D81B701820F39
:1019B000931F0E94C11B1D830C8381E0DF91CF9197
:1019C0001F910F91FF90EF900895CF93DF93EC015B
:1019D00088819981009711F00E94511A198218820A
:1019E0001D821C821B821A82DF91CF910895643080
:1019F00008F063E090913204691710F06FEF690FFF
:101A0000E62FF0E0E15EFB4F9489682F690F606874
:101A10008FE194E00C946906CF93DF93BC0187E3D8
:101A200094E00E943C03EC0166E272E087E394E0FC
:101A30000E943C038C0F9D1FDF91CF910895CF939F
:101A4000DF93FC01448155816081718187E394E0DB
:101A50000E943301EC0166E272E087E394E00E94A9
:101A60003C038C0F9D1FDF91CF910895CF92DF92A1
:101A7000EF92FF92CF93DF93AB01BC0177FF1DC0C4
:101A80006A017B016DE28FE194E00E943503EC0175
:101A900044275527BA014C195D096E097F092AE0D0
:101AA0008FE194E00E94450C8C0F9D1FDF91CF9138
:101AB000FF90EF90DF90CF9008952AE08FE194E0BF
:101AC000DF91CF91FF90EF90DF90CF900C94450C79
:101AD0000F931F93CF93DF93EC0160E070E0CB0195
:101AE000E99120ED2E0F2A30C0F4AAE0B0E09B016E
:101AF000AC010E94E4170E2FEE0F110B220B330BDB
:101B0000DC01CB01800F911FA21FB31FBC01CD01CF
:101B10006053710981099109E3CFDF91CF911F9142
:101B20000F9108950F931F93CF93C1E0809102040A
:101B30008D3221F0C0E002E014E002C003E014E0C6
:101B4000C8010E94680D9B01AC01A4E6B0E00E94B0
:101B5000E417F801DF01219130ED320F3A30D0F374
:101B60002E3269F511962C91119730ED320F3A30E3
:101B700030F5022E000C330B205331094AE0429F0E
:101B80008001439F100D1124012E000C220B330BFA
:101B9000600F711F821F931F12960C9120ED200F72
:101BA0002A3068F4002E000C110B00531109012E8D
:101BB000000C220B330B600F711F821F931FCC236D
:101BC00039F090958095709561957F4F8F4F9F4F1D
:101BD000CF911F910F9108954F925F926F927F92D4
:101BE0008F929F92AF92BF92CF92DF92EF92FF922D
:101BF000CF93DF9382E094E00E94680D2B013C01BB
:101C000024E630E040E050E00E9478199B01AC01EE
:101C100060EA76E881E090E00E9454196B017C0153
:101C2000E2E0F4E0819190ED980F9A30D8F38E3293
:101C300019F5EF0180E1882E87E2982EA12CB12CB6
:101C4000A99180ED8A0F8A30B8F40A2E000CBB0BE4
:101C5000D097A50194010E94A019C60ED71EE81EB8
:101C6000F91EC501B4012AE030E040E050E00E94D6
:101C7000781949015A01E4CFC701B6016D5F7F4F62
:101C80008F4F9F4F26E030E040E050E00E947819EF
:101C900069017A01C301B20124E630E040E050E07E
:101CA0000E94781960E472E48FE090E00E94541979
:101CB0006C0D7D1D8E1D9F1DDF91CF91FF90EF90CC
:101CC000DF90CF90BF90AF909F908F907F906F905C
:101CD0005F904F900895CF93DF93EC0161157105EC
:101CE00061F0FB0101900020E9F73197AF01461B3D
:101CF000570B0E94B70C811103C0CE010E94E50C66
:101D0000CE01DF91CF910895CF93DF93EC01FB01DA
:101D100044815581608171810E94B70C811103C09B
:101D2000CE010E94E50CCE01DF91CF910895EF9294
:101D3000FF920F931F93CF93DF938C017B0161156B
:101D4000710569F0FB0101900020E9F73197EF017F
:101D5000C61BD70BBE010E94900C811104C0C801A4
:101D60000E94E50C08C0F801D583C483B7018081C7
:101D700091810E94C11BC801DF91CF911F910F91EA
:101D8000FF90EF900895EF92FF920F931F93CF93E0
:101D9000DF93EC01198218821B821A821D821C8239
:101DA0006115710521F18B01FB0101900020E9F71C
:101DB00031977F01E61AF70AB7010E94900C811152
:101DC00009C0CE01DF91CF911F910F91FF90EF904D
:101DD0000C94E50CFD82EC82B80188819981DF9139
:101DE000CF911F910F91FF90EF900C94C11BDF9149
:101DF000CF911F910F91FF90EF9008954F925F92B6
:101E00006F927F928F929F92AF92BF92CF92DF920A
:101E1000EF92FF92CF93DF93EC016A017B01B22E28
:101E20009A01AB01C701B6010E944F19882319F02E
:101E30006CE372E027C026013701E89477F82FEFB2
:101E40003FEF4FE75FE7C301B2010E944F198111D5
:101E50000DC02FEF3FEF4FE75FE7C301B2010E94D4
:101E6000C01618161CF460E472E00CC02FEF3FEFB0
:101E70004FE75FE4C701B6010E944A1918169CF4A7
:101E800064E472E0CE01DF91CF91FF90EF90DF909C
:101E9000CF90BF90AF909F908F907F906F905F900A
:101EA0004F900C943C032FEF3FEF4FE75FECC701DF
:101EB000B6010E94C01687FDE3CF20E030E0A90103
:101EC000C701B6010E94C01687FF0AC06DE2CE01AD
:101ED0000E9435034C01F7FAF094F7F8F09402C031
:101EE000812C912CA12C60E070E080E09FE3AB148A
:101EF00041F020E030E040E251E40E94A218A394B7
:101F0000F6CF9B01AC01C701B6010E9436182B0128
:101F10003C010E941B196B017C010E94C5169B01AC
:101F2000AC01C301B2010E9435182B013C012AE02B
:101F3000B701A601CE010E94450C7C01E80CF91CFA
:101F4000BB2031F06EE2CE010E943503E80EF91E8F
:101F5000DB2CDD2029F120E030E040E251E4C30138
:101F6000B2010E9426172B013C010E941B194B0154
:101F7000A12CB12C2AE0B501A401CE010E94450C90
:101F8000E80EF91EC501B4010E94C5169B01AC0103
:101F9000C301B2010E9435182B013C01DA94D9CF5C
:101FA000C701DF91CF91FF90EF90DF90CF90BF906E
:101FB000AF909F908F907F906F905F904F9008951B
:101FC000CF92DF92EF92FF920F931F93E82FF92F9A
:101FD00005C0015011092109310961F19081962351
:101FE0009417B9F305C0015011092109310911F104
:101FF000908196239413F7CFC12CD12CE12CF12C96
:102000000AC08FEFC81AD80AE80AF80A0C151D058D
:102010002E053F0579F080818623841791F36C2D7E
:102020007D2D8E2D9F2D1F910F91FF90EF90DF90B2
:10203000CF90089560E070E080E090E01F910F91F4
:10204000FF90EF90DF90CF900895CF93DF93CAE099
:10205000D1E0D0933804C093370487E394E00E9422
:102060001B03D0935704C093560486E594E0DF9198
:10207000CF910C941B03EFE0F3E01382128288EE01
:1020800093E0A0E0B0E084839583A683B78380E2E9
:1020900091E09183808385EC90E09587848784EC40
:1020A00090E09787868780EC90E0918B808B81EC25
:1020B00090E0938B828B82EC90E0958B848B86EC06
:1020C00090E0978B868B118E128E138E148E20E0EB
:1020D00042E063E086E594E00E94DA0420E040E01C
:1020E00061E087E394E00E94DA04EFE1F4E0138218
:1020F000128284E491E0918380838DE084838FEF6A
:1021000085838CE086838BE087838AE0808789E003
:10211000818788E08287138614861586168617863F
:1021200041E060E1CF010E94A60BECEAF3E04FEF43
:102130005FEFBA01408351836283738310861186F7
:10214000128613868FEF99ECAAE9BBE3808B918B03
:10215000A28BB38B808F918FA28FB38F80A391A31B
:10216000A2A3B3A380A791A7A2A7B3A780AB91AB6B
:10217000A2ABB3AB40AF51AF62AF73AF8FEF90E0A4
:102180009093ED038093EC034093F0035093F1039D
:102190006093F2037093F3034093F8035093F903B1
:1021A0006093FA037093FB031092000410920104F1
:1021B00082E0809311041092120410921304109282
:1021C0001404109215041092160410921704109221
:1021D000180410921A041092190410921C04109200
:1021E0001B04109202040895789484B5826084BD23
:1021F00084B5816084BD85B5826085BD85B581600B
:1022000085BD80916E00816080936E001092810088
:102210008091810082608093810080918100816043
:102220008093810080918000816080938000809104
:10223000B10084608093B1008091B0008160809390
:10224000B00080917A00846080937A0080917A0057
:10225000826080937A0080917A00816080937A0016
:1022600080917A00806880937A001092C10060E0CB
:102270008EE00E941A0460E08FE00E941A0460E081
:1022800084E00E941A0461E087E00E941A04E09151
:102290001F03F091200382E08083E0911B03F09103
:1022A0001C031082E0911D03F0911E038FEC8083CC
:1022B00010922703E0912303F091240386E08083AA
:1022C000E0912103F0912203808180618083E0917D
:1022D0002103F0912203808188608083E0912103B3
:1022E000F0912203808180688083E0912103F09146
:1022F000220380818F7D80831092520410925104BA
:102300001092500410924F0410924E0410924D04FB
:102310008DE991E090935404809353049091430489
:10232000963108F057C02DEB30E030934E042093E7
:102330004D042BE931E03093500420934F042CE2FC
:1023400031E030935204209351042091680098307A
:1023500050F031E09E3008F430E081E001C0880F99
:102360003A95EAF701C084E0822B809368009830A8
:1023700038F09E3040F0963148F020E030E008C060
:102380002DE630E005C02BE630E002C02CE630E060
:1023900030934B0420934A04983030F481E001C01C
:1023A000880F9A95EAF70EC0292F30E09E3018F476
:1023B0002850310902C02E50310981E001C0880F38
:1023C0002A95EAF780934C04809153049091540429
:1023D0000197F1F787E394E00E94BA0544E064E1D5
:1023E0008FE194E00E94A60B8FE194E00E946C06BE
:1023F00060E080E00E94F70C68E472E08FE194E016
:102400000E94510362E080E00E94F70C6DE572E0EB
:102410008FE194E00E94510363E085E00E94F70C95
:1024200060E772E08FE194E00E94510368EE73E090
:1024300080E090E00E945604CEEFD1E00AEE11E079
:1024400036EDE32E31E0F32EFE018491F801C490C5
:10245000F701D490DD2081F081110E94AB038D2D16
:1024600090E0880F991F88539E4FFC01A591B4916D
:102470008C91C82209F05EC00E9474068FE194E03E
:102480000E946C0660E080E00E94F70C6DE872E04C
:102490008FE194E00E94510361E088E00E94F70C14
:1024A00061EA72E08FE194E00E94510362E084E00F
:1024B0000E94F70C68E771E08FE194E00E945103FD
:1024C00060910303709104038091050390910603CA
:1024D0000E94360D61E871E08FE194E00E945103A3
:1024E0008091030390910403A0910503B09106032A
:1024F00084369105A105B10564F463E082E00E9491
:10250000F70C6BE772E08FE194E00E94510361E009
:1025100001C060E087E00E94D40364EF71E080E0D6
:1025200090E00E94560410920803109207030E9444
:102530002F028ACF0E94E5060E94CA060E947406F6
:1025400080900B0390900C03A0900D03B0900E03AD
:1025500020E030E040EB52E4C501B4010E94C01617
:10256000C0900903D0900A0387FD0AC020E030E044
:1025700048EC52E4C501B4010E944A19181674F4DB
:10258000C601CC978734910548F08091070390915C
:102590000803039714F60E941707F7CFFCE3CF1A3E
:1025A000D10887E4C816D104B0F08091030390915C
:1025B0000403A0910503B0910603C297A105B105DC
:1025C000ACF5809107039091080303970CF0A5CF19
:1025D0000E941707F6CF20E030E040EB52E4C5013F
:1025E000B4010E94C01687FD0AC020E030E048EC2C
:1025F00052E4C501B4010E944A1918165CF5809195
:10260000030390910403A0910503B0910603C297C0
:10261000A105B1050CF04CC080910703909108030F
:1026200003970CF07ACF0E941707F6CF20E030E036
:1026300040EB52E4C501B4010E94C01687FD1EC0E4
:1026400020E030E048EC52E4C501B4010E944A1990
:10265000181674F120E030E040EB52E4C501B401FB
:102660000E94C01687FD0AC020E030E048EC52E42A
:10267000C501B4010E944A191816D4F480910303CD
:1026800090910403A0910503B0910603C297A105A0
:10269000B10574F4E7E4CE16D10450F0809107033D
:1026A0009091080303970CF038CF0E941707F6CFDC
:1026B0008FE194E00E946C0660E080E00E94F70CDD
:1026C0006EE571E08FE194E00E94510340910B03AD
:1026D00050910C0360910D0370910E0322E08FE185
:1026E00094E00E94FE0E67E671E08FE194E00E94A4
:1026F000510361E080E00E94F70C6AE671E08FE12F
:1027000094E00E9451036091090370910A03072E1F
:10271000000C880B990B0E94360D63E771E08FE186
:1027200094E00E94510362E080E00E94F70C68E7A9
:1027300071E08FE194E00E94510360910303709176
:10274000040380910503909106030E94360D61E811
:1027500071E08FE194E00E945103DFCEEF920F937E
:102760001F93CF93DF93E80147FD02C034E001C01F
:1027700034E1E42F440FFF0BF7FF03C0F195E1951F
:10278000F109E32E022F2E2FAE010E944A14CE0132
:10279000DF91CF911F910F91EF900895FC01882751
:1027A0009927E89421912032E9F3293010F02E3056
:1027B000C8F32B3241F02D3239F4689404C00E94E2
:1027C0000614820F911D219120532A30C0F31EF46C
:1027D000909581959F4F0895BB274A3031F49923F6
:1027E00022F4BDE2909581959F4F0C943114BB2744
:1027F0002A3051F4992342F4BDE29095809570956A
:1028000061957F4F8F4F9F4F0C940F147AE0979FE5
:10281000902D879F802D910D11240895BB27FA01DB
:10282000A62F6217710581059105330B30FB66F009
:10283000AA27660F771F881F991FAA1FA21710F0DB
:10284000A21B63953850A9F7A05DAA3308F0A95DD3
:10285000A19336F7B111B1931082CA010C94B0164E
:10286000BB27FB015527AA27880F991FAA1FA4176A
:1028700010F0A41B83955051B9F7A05DAA3308F05E
:10288000A95DA193009779F7B111B1931192CB0192
:102890000C94B0164F925F926F927F929F92AF927C
:1028A000BF92CF92DF92EF92FF920F931F93CF933D
:1028B000DF93CDB7DEB729970FB6F894DEBF0FBE12
:1028C000CDBF6A01122FB02E2BE3201720F0FF247A
:1028D000F394F00E02C0BCE3FB2E0F2D27E0AE01F7
:1028E0004F5F5F4F0E94D815AC018981982F997076
:1028F000913031F0E1FC06C0E0FE06C090E205C078
:102900009DE203C09BE201C090E0EE2DE07183FFE9
:102910003CC0911102C083E001C084E0811718F42B
:10292000212F281B01C020E0E1110BC0F601822FEE
:1029300030E2882319F031938150FBCFC20ED11CB5
:1029400020E0992329F0D6019C93F60131966F017E
:10295000C6010396E2FE0AC03EE4D6013C9341E480
:1029600011964C93119712963C9306C03EE6F601E1
:10297000308341E641833283FC01322F40E233232E
:1029800009F442C041933150FACF82FF44C0911103
:1029900002C083E001C084E0811718F4212F281BB6
:1029A00001C020E0E1110BC0F601822F30E2882344
:1029B00019F031938150FBCFC20ED11C20E0992336
:1029C00029F0D6019C93F60131966F01C60103965A
:1029D000E2FE0BC039E4D6013C933EE411963C93F1
:1029E000119736E412963C9307C039E6F60130831E
:1029F0003EE6318336E63283FC01322F40E2332358
:102A000019F041933150FBCFFC01E20FF11D108210
:102A10008EEF9FEFB7C0F1E0911101C0F0E06F2F92
:102A200070E01416150624F49A012F5F3F4F02C080
:102A300021E030E0260F371FBB2029F06B2D70E01E
:102A40006F5F7F4F02C060E070E0260F371F612F7D
:102A500070E0261737071CF4121B212F01C020E05D
:102A60003E2D387159F4D601322F60E2332319F02C
:102A70006D933150FBCFC20ED11C20E0FF2331F00B
:102A8000D6019C93B6016F5F7F4F6B01E1110BC0C4
:102A9000F601922F30E3992319F031939150FBCF37
:102AA000C20ED11C20E09F2D940F3A81782F7071B7
:102AB000A72E84FF03C0313309F49150191624F472
:102AC000993018F098E001C091E0E42F852F57FF6E
:102AD00002C0E0E080E06E2F782FE0E0F0E0AEE2B0
:102AE0009A2E3A01691A71082A01461A570A0B2DC3
:102AF00010E01195019511096F3F8FEF780729F4C8
:102B0000D6019C92C60101966C014617570784F0C6
:102B1000661677066CF47F01E40CF51CA1E0B0E0CA
:102B2000AC0FBD1FEA0EFB1ED7011196BC9002C070
:102B300090E3B92E615071093196C60101967C016E
:102B40006017710724F0D601BC926C01D5CF6417D1
:102B5000750741F4363320F4353321F4A11002C057
:102B600081E3B82EF601B082F701822F90E288232C
:102B700019F091938150FBCFF701E20FF11D108204
:102B800080E090E029960FB6F894DEBF0FBECDBF6F
:102B9000DF91CF911F910F91FF90EF90DF90CF9039
:102BA000BF90AF909F907F906F905F904F900895EF
:102BB000283008F027E03327DA01990F311D87FD0F
:102BC000916000966105710539F432602E5F3D9386
:102BD00030E32A95E1F708959F3F30F08038710582
:102BE000610509F03C5F3C5F3D93913008F08068DF
:102BF000911DDF93CF931F930F93FF92EF92192FA5
:102C0000987F9695E92F96959695E90FFF27EC5EAC
:102C1000FE4F99273327EE24FF24A701E7010590F3
:102C20000894079428F4360FE71EF81E491F511D1B
:102C3000660F771F881F991F0694A1F705900794C8
:102C400028F4E70EF81E491F561FC11D770F881F75
:102C5000991F661F0694A1F70590079428F4F80EB3
:102C6000491F561FC71FD11D880F991F661F771F49
:102C70000694A1F70590079420F4490F561FC71F2B
:102C8000D81F990F661F771F881F0694A9F7849194
:102C90001095177041F0D695C79557954795F794BD
:102CA000E7941A95C1F7EAEBF0E068941590159156
:102CB00035916591959105907FE27395E118F10A40
:102CC000430B560BC90BD009C0F7E10CF11E431F93
:102CD000561FC91FD01D7EF4703311F48A95E6CFBC
:102CE000E894015030F0080F0AF40027021708F4A6
:102CF000202F2395022F7A3328F079E37D932A95AC
:102D0000E9F710C07D932A9589F606949795679503
:102D1000379517951794E118F10A430B560BC90B19
:102D2000D00998F023957E9173957A3308F070E37B
:102D30007C932013B8F77E9170617D9330F083957A
:102D400071E37D9370E32A95E1F71124EF90FF90F2
:102D50000F911F91CF91DF91992787FD909508954D
:102D6000DC01FC01672F71917723E1F7329704C0F2
:102D70007C916D9370836291AE17BF07C8F308957D
:102D80000E94021708F481E00895E89409C097FBB7
:102D90003EF490958095709561957F4F8F4F9F4F32
:102DA0009923A9F0F92F96E9BB279395F695879576
:102DB00077956795B795F111F8CFFAF4BB0F11F439
:102DC00060FF1BC06F5F7F4F8F4F9F4F16C08823E0
:102DD00011F096E911C0772321F09EE8872F762F16
:102DE00005C0662371F096E8862F70E060E02AF057
:102DF0009A95660F771F881FDAF7880F9695879543
:102E000097F90895990F0008550FAA0BE0E8FEEF17
:102E100016161706E807F907C0F012161306E4079E
:102E2000F50798F0621B730B840B950B39F40A2697
:102E300061F0232B242B252B21F408950A2609F475
:102E4000A140A6958FEF811D811D08950E9439171D
:102E50000C94AA170E949C1738F00E94A31720F028
:102E6000952311F00C9493170C94991711240C943A
:102E7000DE170E94BB1770F3959FC1F3950F50E0CA
:102E8000551F629FF001729FBB27F00DB11D639F1C
:102E9000AA27F00DB11DAA1F649F6627B00DA11DC2
:102EA000661F829F2227B00DA11D621F739FB00D68
:102EB000A11D621F839FA00D611D221F749F3327D8
:102EC000A00D611D231F849F600D211D822F762F71
:102ED0006A2F11249F5750409AF0F1F088234AF04E
:102EE000EE0FFF1FBB1F661F771F881F91505040BA
:102EF000A9F79E3F510580F00C9493170C94DE17B0
:102F00005F3FE4F3983ED4F3869577956795B79540
:102F1000F795E7959F5FC1F7FE2B880F911D96955A
:102F2000879597F9089597F99F6780E870E060E0CA
:102F300008959FEF80EC089500240A941616170652
:102F400018060906089500240A941216130614069A
:102F500005060895092E0394000C11F4882352F0FD
:102F6000BB0F40F4BF2B11F460FF04C06F5F7F4FB5
:102F70008F4F9F4F089557FD9058440F551F59F09C
:102F80005F3F71F04795880F97FB991F61F09F3F56
:102F900079F087950895121613061406551FF2CF7F
:102FA0004695F1DF08C0161617061806991FF1CFCF
:102FB00086957105610508940895E894BB276627F6
:102FC0007727CB0197F908950E942618A59F900DA9
:102FD000B49F900DA49F800D911D112408952F92F0
:102FE0003F924F925F926F927F928F929F92AF9299
:102FF000BF92CF92DF92EF92FF920F931F93CF93E6
:10300000DF93CDB7DEB7CA1BDB0B0FB6F894DEBF7C
:103010000FBECDBF09942A88398848885F846E84A2
:103020007D848C849B84AA84B984C884DF80EE80EC
:10303000FD800C811B81AA81B981CE0FD11D0FB6F5
:10304000F894DEBF0FBECDBFED010895A29FB00181
:10305000B39FC001A39F700D811D1124911DB29FCC
:10306000700D811D1124911D08955058BB27AA276A
:103070000E944D180C94AA170E949C1738F00E94C9
:10308000A31720F039F49F3F19F426F40C949917F4
:103090000EF4E095E7FB0C949317E92F0E94BB1701
:1030A00058F3BA17620773078407950720F079F47D
:1030B000A6F50C94DD170EF4E0950B2EBA2FA02D7B
:1030C0000B01B90190010C01CA01A0011124FF27D5
:1030D000591B99F0593F50F4503E68F11A16F040D0
:1030E000A22F232F342F4427585FF3CF46953795CF
:1030F0002795A795F0405395C9F77EF41F16BA0B94
:10310000620B730B840BBAF09150A1F0FF0FBB1F41
:10311000661F771F881FC2F70EC0BA0F621F731F8A
:10312000841F48F4879577956795B795F7959E3FE7
:1031300008F0B0CF9395880F08F09927EE0F979578
:10314000879508950E94B6180C94AA170E94A31799
:1031500058F00E949C1740F029F45F3F29F00C942E
:10316000931751110C94DE170C9499170E94BB17FA
:1031700068F39923B1F3552391F3951B550BBB27A6
:10318000AA2762177307840738F09F5F5F4F220FEB
:10319000331F441FAA1FA9F335D00E2E3AF0E0E8E2
:1031A00032D091505040E695001CCAF72BD0FE2F2C
:1031B00029D0660F771F881FBB1F261737074807C0
:1031C000AB07B0E809F0BB0B802DBF01FF27935878
:1031D0005F4F3AF09E3F510578F00C9493170C9492
:1031E000DE175F3FE4F3983ED4F3869577956795B5
:1031F000B795F7959F5FC9F7880F911D96958795AD
:1032000097F90895E1E0660F771F881FBB1F6217CB
:1032100073078407BA0720F0621B730B840BBA0B89
:10322000EE1F88F7E09508950E941B196894B1116C
:103230000C94DE1708950E94C31788F09F5798F0EA
:10324000B92F9927B751B0F0E1F0660F771F881FAB
:10325000991F1AF0BA95C9F714C0B13091F00E94C5
:10326000DD17B1E008950C94DD17672F782F8827BC
:10327000B85F39F0B93FCCF3869577956795B395EC
:10328000D9F73EF490958095709561957F4F8F4F5B
:103290009F4F08950E94021708F48FEF08950E942F
:1032A0000217880B990B0895DB018F939F930E945F
:1032B000E417BF91AF91A29F800D911DA39F900D28
:1032C000B29F900D1124089597FB072E16F40094D9
:1032D00007D077FD09D00E94A81907FC05D03EF45D
:1032E000909581959F4F0895709561957F4F0895B2
:1032F000A1E21A2EAA1BBB1BFD010DC0AA1FBB1FFA
:10330000EE1FFF1FA217B307E407F50720F0A21B6B
:10331000B30BE40BF50B661F771F881F991F1A94D8
:1033200069F760957095809590959B01AC01BD0102
:10333000CF010895EE0FFF1F0590F491E02D099441
:10334000B7FF0C94E4170E94E417821B930B0895B7
:10335000AA1BBB1B51E107C0AA1FBB1FA617B707BB
:1033600010F0A61BB70B881F991F5A95A9F78095D7
:103370009095BC01CD010895CF93DF9382309105E4
:1033800010F482E090E0E0917704F091780420E07E
:1033900030E0C0E0D0E0309711F140815181481712
:1033A0005907C0F04817590761F48281938120972B
:1033B00019F09B838A832BC09093780480937704C1
:1033C00026C02115310519F04217530718F49A0148
:1033D000BE01DF01EF010280F381E02DDCCF21157A
:1033E000310509F1281B390B2430310590F4129670
:1033F0008D919C9113976115710521F0FB019383C9
:10340000828304C09093780480937704FD01329600
:1034100044C0FD01E20FF31F8193919322503109C3
:103420002D933C933AC02091750430917604232B60
:1034300041F42091020130910301309376042093EE
:10344000750420910001309101012115310541F4ED
:103450002DB73EB74091040150910501241B350B57
:10346000E0917504F0917604E217F307A0F42E1BA7
:103470003F0B2817390778F0AC014E5F5F4F2417D8
:10348000350748F04E0F5F1F509376044093750444
:103490008193919302C0E0E0F0E0CF01DF91CF9102
:1034A00008950F931F93CF93DF93009709F48CC077
:1034B000FC013297138212820091770410917804F4
:1034C0000115110581F420813181820F931F209114
:1034D0007504309176042817390779F5F09376044E
:1034E000E093750471C0D80140E050E0AE17BF070B
:1034F00050F412962D913C911397AD012115310591
:1035000009F1D901F3CF9D01DA0133832283608170
:103510007181860F971F8217930769F4EC01288148
:103520003981260F371F2E5F3F4F318320838A81D9
:103530009B8193838283452B29F4F0937804E09355
:10354000770442C01396FC93EE931297ED014991D4
:1035500059919E01240F351FE217F30771F4808102
:103560009181840F951F029611969C938E93828170
:10357000938113969C938E931297E0E0F0E0D8012C
:1035800012968D919C911397009719F0F8018C0178
:10359000F6CF8D919C9198012E5F3F4F820F931F24
:1035A00020917504309176042817390769F4309713
:1035B00029F4109278041092770402C013821282C8
:1035C0001093760400937504DF91CF911F910F91B2
:1035D0000895A0E0B0E0EFEEFAE10C94F317EC01EF
:1035E000009721F4CB010E94BC19B8C0FC01E60F82
:1035F000F71F9C0122503109E217F30708F4ACC011
:10360000D9010D911C91119706171707B0F00530DD
:10361000110508F49FC0C80104978617970708F49E
:1036200099C002501109061B170B019311936D935A
:103630007C93CF010E94511A8DC05B01A01AB10A80
:103640004C01800E911EA0917704B091780440E067
:1036500050E0E12CF12C109709F44AC0A815B905E7
:10366000D1F56D907C901197630182E0C80ED11C5A
:10367000CA14DB0480F1A3014A195B096A0182E0E4
:10368000C80ED11C1296BC9012971396AC91B5E05F
:10369000CB16D10440F0B282A38351834083D90179
:1036A0006D937C930AC00E5F1F4FC301800F911F63
:1036B000F90191838083EB2DFA2FE114F10431F0AD
:1036C000D7011396FC93EE93129744C0F0937804BD
:1036D000E09377043FC08D919C911197481759074B
:1036E00008F4AC017D0112960D90BC91A02DB3CFD2
:1036F000809175049091760488159905E1F4461738
:103700005707C8F48091000190910101009741F49E
:103710008DB79EB74091040150910501841B950B14
:10372000E817F907C8F4F0937604E0937504F901FB
:10373000718360830FC0CB010E94BC197C0100978C
:1037400059F0A801BE010E94B81BCE010E94511A77
:10375000C70104C0CE0102C080E090E0CDB7DEB763
:10376000EEE00C940F1881E090E0F8940C94C81BE4
:10377000FB01DC0102C001900D9241505040D8F78E
:103780000895FB01DC0101900D920020E1F70895FE
:1037900011E0C8E0D1E004C0FE010E949A19219610
:0A37A000C930D107C9F7F894FFCF34
:1037AA00000079048000000000008E023301320319
:1037BA008D02E202FA0275020F000E0000000000FC
:1037CA00C60133015E010D028F016D018101000006
:1037DA0000008E0C3301320331038E0C8E0C8E0CDA
:1037EA0000000000630633013203310300000000C9
:1037FA008E0C3301320331034750524D4300546556
:10380A006D7020203A2000274600426561747320BB
:10381A003A20002042504D00446973742E203A2009
:10382A000020636D0041542B434D47463D31004112
:10383A00542B434D47533D222B39313730353737D7
:10384A003237383938220D0041542B434D47533D06
:10385A00222B393139383232303937383539220D5D
:10386A000054656D7065726174757265203A200046
:10387A00202A46004F62737461636C65203A200007
:10388A004D7973656C66204142432E2E2E004927DE
:10389A006D20696E2044616E6765722E204920771B
:1038AA00616E742068656C702E004D79206C6F63B0
:1038BA006174696F6E20697320004C617469747554
:1038CA006465203A20000D0A004C6F6E67697475B2
:1038DA006465203A20004750474741006E616E00F8
:1038EA00696E66006F766600576F6D656E202620DA
:1038FA004368696C642053616665747900496E692E
:10390A007469616C697A696E672047534D20260095
:10391A00475053204D6F64756C65004F6273746134
:10392A00636C6520446574656374656400426C6900
:10393A006E6420506572736F6E2053616665747988
:06394A00004D4F44450052
:00000001FF
